:100000000C945A000C946C000C946C000C946C00D2
:100010000C946C000C946C000C946C000C94940187
:100020000C946C000C946C000C946C000C946C00A0
:100030000C946C000C946C000C946C000C946C0090
:100040000C946C000C946C000C946C000C946C0080
:100050000C946C000C946C000C946C000C946C0070
:100060000C946C000C946C000C946C000C946C0060
:100070000C94C9010C946C000C946C000C946C00F2
:100080000C946C000C946C000C946C000C946C0040
:100090000C946C000C946C000C946C000C946C0030
:1000A0000C946C000C946C000C946C000C946C0020
:1000B0000C946C0011241FBECFEFD8E0DEBFCDBF83
:1000C00021E0A0E0B1E001C01D92AE32B207E1F73D
:1000D0000E94B8010C947A020C940000CF93DF9335
:1000E0008AB180668AB9549A5C9A14BC15BC84B5EE
:1000F000806A84BD84B5816084BD85B5836085BD1B
:100100008FE387BD80EC88BDC0EBD0E01882A1EB07
:10011000B0E01C921092B600E0E7F0E01082888117
:10012000826088838C9187608C9386E68093B3008D
:100130008081826080837894DF91CF91089590933D
:1001400001018093000108956093070170930801F5
:100150008093090190930A01609302017093030157
:10016000809304019093050108955C9A089580910D
:10017000000190910101892B71F09BB180E18927E9
:100180008BB9809100019091010101979093010139
:100190008093000108950E94B500089580910601A2
:1001A0008C3421F08F5F8093060108951092060130
:1001B0008091070190910801A0910901B0910A0175
:1001C0000097A105B10559F40E94B70010920701EC
:1001D000109208011092090110920A0108950197E6
:1001E000A109B1098093070190930801A093090127
:1001F000B0930A0108958AB187608AB984B1866094
:1002000084B95A9AA0E9B0E01C92E1E9F0E01082CA
:10021000109292008C9180688C938C9182608C9368
:100220008081886180838081816080838FE990E014
:10023000909397008093960081E090E090939900CE
:1002400080939800A0E8B0E01C92E1E8F0E0108212
:10025000109282008C91806A8C938C9182608C9336
:100260008081886180838081816080832FEF3FE07F
:1002700030938700209386001092890010928800A6
:1002800010928B0010928A00A0EAB0E01C92E1EA82
:10029000F0E010821092A2008C91806A8C938C9175
:1002A00082608C938081886180838081816080837B
:1002B0003093A7002093A6001092A9001092A800E6
:1002C0001092AB001092AA000895823091F018F4B9
:1002D000813031F008958330A9F08430E1F0089541
:1002E00080E1689FB00111247093890060938800B9
:1002F000089580E1689FB001112470938B00609392
:100300008A00089580E1689FB00111247093AB00CA
:100310006093AA00089580E1689FB0011124709352
:10032000A9006093A80008951F920F920FB60F9234
:1003300011242F933F934F935F936F937F938F93EA
:100340009F93AF93BF93EF93FF930E94CE00FF91D3
:10035000EF91BF91AF919F918F917F916F915F913D
:100360004F913F912F910F900FBE0F901F901895B6
:100370000E946E000E94FB000E94ED016EE170E0A1
:1003800080E090E00E94A4008CE390E00E949F0037
:10039000FFCF1F920F920FB60F9211242F933F930E
:1003A0004F935F936F937F938F939F93AF93BF937D
:1003B000EF93FF930E943302FF91EF91BF91AF91B2
:1003C0009F918F917F916F915F914F913F912F916D
:1003D0000F900FBE0F901F901895F8942498239AB1
:1003E0001092CD0083E38093CC001092C800E9EC1A
:1003F000F0E01082808188618083808180688083C2
:10040000EAECF0E0108286E0808378940895CF9340
:10041000DF9380910D01803319F08133D9F020C032
:1004200080910E018E3399F4CDE0D1E06A8181E0B4
:100430000E9465016B8182E00E9465016C8183E00E
:100440000E9465016D8184E00E94650109C0809170
:100450000E0106C080910E018E3311F080910E01C5
:10046000DF91CF9108958091CE0080932D018091EE
:100470002D01803321F080912D01813349F4809149
:100480000B01811105C010920C0181E080930B01DA
:1004900080912D018D3021F480910C018630A8F4DB
:1004A000E0910C01F0E080912D01E35EFE4F80832E
:1004B00080910C018F3030F480910C018F5F80931C
:1004C0000C01089510920C01089580E090E0FC0169
:1004D000E35EFE4F2081FC01E35FFE4F2083019627
:1004E00080319105A1F710920C0110920B010E942E
:0804F00007020895F894FFCF04
:00000001FF
