:100000000C945A000C946C000C946C000C946C00D2
:100010000C946C000C946C000C946C000C946C00B0
:100020000C946C000C946C000C946C000C946C00A0
:100030000C946C000C946C000C946C000C946C0090
:100040000C946C000C946C000C946C000C946C0080
:100050000C946C000C946C000C946C000C946C0070
:100060000C946C000C946C000C946C000C946C0060
:100070000C9461010C946C000C946C000C946C005A
:100080000C946C000C946C000C946C000C946C0040
:100090000C946C000C946C000C946C000C946C0030
:1000A0000C946C000C946C000C946C000C946C0020
:1000B0000C946C0011241FBECFEFD8E0DEBFCDBF83
:1000C00021E0A0E0B1E001C01D92AC32B207E1F73F
:1000D0000E9450010C94DB010C940000CF93DF933D
:1000E0008AB180668AB9549A5C9A14BC15BC84B5EE
:1000F000806A84BD84B5816084BD85B5836085BD1B
:100100008FE387BD80EC88BDC0EBD0E01882A1EB07
:10011000B0E01C921092B600E0E7F0E01082888117
:10012000826088838C9187608C9386E68093B3008D
:100130008081826080837894DF91CF91089590933D
:1001400001018093000108956093060170930701F7
:100150008093080190930901609302017093030159
:10016000809304019093050108958AB187608AB94C
:1001700084B1866084B95A9AA0E9B0E01C92E1E9A2
:10018000F0E01082109292008C9180688C938C9198
:1001900082608C938081886180838081816080838C
:1001A0008FE990E0909397008093960081E090E033
:1001B0009093990080939800A0E8B0E01C92E1E849
:1001C000F0E01082109282008C91806A8C938C9166
:1001D00082608C938081886180838081816080834C
:1001E0004FEF5FE0509387004093860084E490E0F7
:1001F000909389008093880090938B0080938A006D
:10020000A0EAB0E01C92E1EAF0E010821092A200B5
:100210002C91206A2C932C9122602C9320812861B0
:1002200020832081216020835093A7004093A60063
:100230009093A9008093A8009093AB008093AA00AC
:100240000895823091F018F4813031F008958330B0
:10025000A9F08430E1F0089584E1689FB001112491
:100260007093890060938800089584E1689FB001CD
:10027000112470938B0060938A00089584E1689F35
:10028000B00111247093AB006093AA00089584E13B
:10029000689FB00111247093A9006093A80008958D
:1002A0000E946E000E94B5000E94850160ED77E01B
:1002B00080E090E00E94A4008CED95E00E949F00F9
:1002C000FFCF1F920F920FB60F9211242F933F93DF
:1002D0004F935F936F937F938F939F93AF93BF934E
:1002E000EF93FF930E94B201FF91EF91BF91AF9105
:1002F0009F918F917F916F915F914F913F912F913E
:100300000F900FBE0F901F901895F8942498239A81
:100310001092CD0083E38093CC001092C800E9ECEA
:10032000F0E0108280818861808380818068808392
:10033000EAECF0E0108286E0808378940895809162
:100340000B01803371F480910C01882351F080916E
:100350000C01853030F4EBE0F1E0628181810E9494
:10036000210108958091CE0080932B0180912B0173
:100370008D3071F0E0910A01F0E080912B01E55E93
:10038000FE4F808380910A018F5F80930A01089558
:1003900080E090E0FC01E55EFE4F2081FC01E55F1E
:1003A000FE4F2083019680319105A1F710920A013A
:0A03B0000E949F010895F894FFCF0A
:00000001FF
