S01100006D6F6F646C696768742E737265634C
S11300000C945A000C946C000C946C000C946C00CE
S11300100C946C000C946C000C946C000C946C00AC
S11300200C946C000C946C000C946C000C946C009C
S11300300C946C000C946C000C946C000C946C008C
S11300400C946C000C946C000C9448010C946C009F
S11300500C946C000C946C000C946C000C946C006C
S11300600C946C000C946C000C946C000C946C005C
S11300700C946C000C946C000C946C000C946C004C
S11300800C946C000C946C000C946C000C946C003C
S11300900C946C000C946C000C946C000C946C002C
S11300A00C946C000C946C000C946C000C946C001C
S11300B00C946C0011241FBECFEFD8E0DEBFCDBF7F
S11300C021E0A0E0B1E001C01D92A232B207E1F745
S11300D00E941C010C94BA010C9400008AB1806641
S11300E08AB914BC15BC84B5806A84BD84B58160AA
S11300F084BD85B5836085BD8FE387BD80EC88BDF5
S113010008958AB187608AB984B1866084B95A9A9D
S1130110A0E9B0E01C92E1E9F0E0108210929200B4
S11301208C9180688C938C9182608C93808188619F
S113013080838081816080838FE990E09093970031
S11301408093960081E090E09093990080939800CA
S1130150A0E8B0E01C92E1E8F0E010821092820086
S11301608C91806A8C938C9182608C93808188615D
S113017080838081816080834FEF5FE050938700AC
S11301804093860084E490E09093890080938800F3
S113019090938B0080938A00A0EAB0E01C92E1EA7D
S11301A0F0E010821092A2002C91206A2C932C91E2
S11301B022602C9320812861208320812160208368
S11301C05093A7004093A6009093A9008093A800A1
S11301D09093AB008093AA000895823091F018F4B4
S11301E0813031F008958330A9F08430E1F008952E
S11301F084E1689FB00111247093890060938800A2
S1130200089584E1689FB001112470938B0060937A
S11302108A00089584E1689FB00111247093AB00B3
S11302206093AA00089584E1689FB001112470933B
S1130230A9006093A80008950E9481000E946E00A6
S11302400E946C0101E010E0C0E0D0E0CC24C39433
S1130250D12CEE24EA94FF24FA9402C00E2D1F2D13
S1130260CF3FD10509F048F480E30E94860181E084
S11302700E9486018C2F0E948601C00FD11FCF3FA0
S1130280D10564F71C161D065CF30C2D1D2DE8CF5B
S11302901F920F920FB60F9211242F933F934F93F7
S11302A05F936F937F938F939F93AF93BF93EF93DA
S11302B0FF930E949601FF91EF91BF91AF919F919F
S11302C08F917F916F915F914F913F912F910F90FB
S11302D00FBE0F901F901895F8942498239A1092AB
S11302E0CD0083E38093CC001092C800E9ECF0E0E9
S11302F01082808188618083808180688083EAECB9
S1130300F0E0108286E0808378940895E0ECF0E0D9
S1130310908195FFFDCF8093CE000895E1E0F1E058
S11303206281818167530E94ED0008958091CE001F
S1130330809321018D3059F090910001E92FF0E074
S1130340EF5EFE4F80839F5F90930001089580E0ED
S113035090E0FC01EF5EFE4F2081FC01EF5FFE4F59
S11303602083019680319105A1F7109200010E942B
S10B03708E010895F894FFCFFB
S9030000FC
