:100000000C945A000C946C000C946C000C946C00D2
:100010000C946C000C946C000C946C000C946C00B0
:100020000C946C000C946C000C946C000C946C00A0
:100030000C946C000C946C000C946C000C946C0090
:100040000C946C000C946C000C946C000C946C0080
:100050000C946C000C946C000C946C000C946C0070
:100060000C946C000C946C000C946C000C946C0060
:100070000C940C010C946C000C946C000C946C00AF
:100080000C946C000C946C000C946C000C946C0040
:100090000C946C000C946C000C946C000C946C0030
:1000A0000C946C000C946C000C946C000C946C0020
:1000B0000C946C0011241FBECFEFD8E0DEBFCDBF83
:1000C00021E0A0E0B1E001C01D92A332B207E1F748
:1000D0000E9407010C94BD010C9400008AB1876056
:1000E0008AB984B1866084B95A9AA0E9B0E01C92BA
:1000F000E1E9F0E01082109292008C9180688C937C
:100100008C9182608C938081886180838081816002
:1001100080838FE990E0909397008093960081E030
:1001200090E09093990080939800A0E8B0E01C9232
:10013000E1E8F0E01082109282008C91806A8C934A
:100140008C9182608C9380818861808380818160C2
:1001500080832FEF3FE0309387002093860010923A
:1001600089001092880010928B0010928A00A0EAF9
:10017000B0E01C92E1EAF0E010821092A2008C91B3
:10018000806A8C938C9182608C938081886180835B
:100190008081816080833093A7002093A600109215
:1001A000A9001092A8001092AB001092AA00089526
:1001B000823091F018F4813031F008958330A9F045
:1001C0008430E1F0089580E1689FB00111247093BC
:1001D000890060938800089580E1689FB001112430
:1001E00070938B0060938A00089580E1689FB0014E
:1001F00011247093AB006093AA00089580E1689F7A
:10020000B00111247093A9006093A80008950E9482
:100210006E000E943001FFCF1F920F920FB60F9217
:1002200011242F933F934F935F936F937F938F93FB
:100230009F93AF93BF93EF93FF930E947601FF913B
:10024000EF91BF91AF919F918F917F916F915F914E
:100250004F913F912F910F900FBE0F901F901895C7
:10026000F8942498239A1092CD0083E38093CC00D5
:100270001092C800E9ECF0E01082808188618083F0
:10028000808180688083EAECF0E0108286E08083E1
:1002900078940895CF93DF9380910201803319F011
:1002A0008133D9F020C0809103018E3399F4C2E0EC
:1002B000D1E06A8181E00E94D8006B8182E00E94D7
:1002C000D8006C8183E00E94D8006D8184E00E9498
:1002D000D80009C08091030106C0809103018E33CC
:1002E00011F080910301DF91CF9108958091CE00AC
:1002F0008093220180912201803321F0809122019C
:10030000813349F480910001811105C010920101EF
:1003100081E080930001809122018D3021F4809151
:1003200001018630A8F4E0910101F0E08091220102
:10033000EE5EFE4F8083809101018F3030F480911A
:1003400001018F5F809301010895109201010895CA
:1003500080E090E0FC01EE5EFE4F2081FC01EE5F4C
:10036000FE4F2083019680319105A1F71092010183
:0E037000109200010E944A010895F894FFCFF8
:00000001FF
