S01100006D6F6F646C696768742E737265634C
S11300000C945A000C9477000C9477000C947700AD
S11300100C9477000C9477000C9477000C94630193
S11300200C9477000C9477000C9477000C94770070
S11300300C9477000C9477000C9477000C94770060
S11300400C9477000C9477000C9477000C94770050
S11300500C9477000C9477000C9477000C94770040
S11300600C9477000C9477000C9477000C94770030
S11300700C94C6010C9477000C9477000C947700D0
S11300800C9477000C9477000C9477000C94770010
S11300900C9477000C9477000C9477000C94770000
S11300A00C9477000C9477000C9477000C947700F0
S11300B00C94770011241FBECFEFD8E0DEBFCDBF74
S11300C011E0A0E0B1E0ECECF4E002C005900D9288
S11300D0A030B107D9F721E0A0E0B1E001C01D9242
S11300E0AA32B207E1F70E9487010C9464020C94CF
S11300F00000CF93DF938AB180668AB9549A5C9AE0
S113010014BC15BC84B5806A84BD84B5816084BD8B
S113011085B5836085BD8FE387BD80EC88BDC0EB6A
S1130120D0E01882A1EBB0E01C921092B600E0E798
S1130130F0E010828881826088838C9187608C9340
S113014086E68093B3008081826080837894DF9117
S1130150CF91089560930401709305018093060183
S11301609093070160930001709301018093020151
S113017090930301089510920401109205011092C6
S11301800601109207019BB180E189278BB908957C
S11301908AB187608AB984B1866084B95A9AA0E921
S11301A0B0E01C92E1E9F0E01082109292008C9190
S11301B080688C938C9182608C9380818861808329
S11301C08081816080838FE990E090939700809391
S11301D0960081E090E09093990080939800A0E8C5
S11301E0B0E01C92E1E8F0E01082109282008C9161
S11301F0806A8C938C9182608C93808188618083E7
S11302008081816080834FEF5FE05093870040934B
S1130210860084E490E09093890080938800909312
S11302208B0080938A00A0EAB0E01C92E1EAF0E03F
S113023010821092A2002C91206A2C932C9122609F
S11302402C93208128612083208121602083509376
S1130250A7004093A6009093A9008093A8009093D0
S1130260AB008093AA000895823091F018F4813095
S113027031F008958330A9F08430E1F0089584E1E9
S1130280689FB001112470938900609388000895D9
S113029084E1689FB001112470938B0060938A00FD
S11302A0089584E1689FB00111247093AB006093BA
S11302B0AA00089584E1689FB00111247093A900F5
S11302C06093A80008951F920F920FB60F92112405
S11302D02F933F934F935F936F937F938F939F934A
S11302E0AF93BF93EF93FF930E94BB00FF91EF91F5
S11302F0BF91AF919F918F917F916F915F914F913A
S11303003F912F910F900FBE0F901F901895CF9390
S1130310DF9300D01F92CDB7DEB70E9479000E9410
S1130320C8000E94EA016AE070E080E090E00E9468
S1130330AA0080E3898381E08A83EE24E394F12C8C
S113034000E010E0CC24CA94DD24DA94AA24A39417
S1130350B12C093C110530F40B8363E0CE01019606
S11303600E940C020E0D1F1D083C110534F41016DA
S113037011062CF0EA2CFB2C02C0EC2CFD2C87EA95
S113038091E60197F1F700C00000E3CF1F920F92AE
S11303900FB60F9211242F933F934F935F936F9354
S11303A07F938F939F93AF93BF93EF93FF930E9499
S11303B03B02FF91EF91BF91AF919F918F917F91FC
S11303C06F915F914F913F912F910F900FBE0F90BE
S11303D01F901895F8942498239A1092CD0083E3E3
S11303E08093CC001092C800E9ECF0E01082808188
S11303F088618083808180688083EAECF0E01082E9
S113040086E0808378940895E8ECF0E0908195FF8D
S1130410FDCF8093CE0008950F931F93CF93DF9366
S1130420662371F0EC016150062F10E00F5F1F4F3F
S1130430080F191F89910E940402C017D107D1F730
S11304408DE00E940402DF91CF911F910F910895D6
S113045080910901803371F480910A01882351F05D
S113046080910A01853030F4E9E0F1E06281818114
S11304700E94340108958091CE00809329018091D7
S113048029018D3071F0E0910801F0E0809129019B
S1130490E75EFE4F8083809108018F5F809308019F
S11304A0089580E090E0FC01E75EFE4F2081FC01AE
S11304B0E75FFE4F2083019680319105A1F71092EA
S10F04C008010E9428020895F894FFCF60
S9030000FC
