S01100006D6F6F646C696768742E737265634C
S11300000C945A000C946C000C946C000C946C00CE
S11300100C946C000C946C000C946C000C946C00AC
S11300200C946C000C946C000C946C000C946C009C
S11300300C946C000C946C000C946C000C946C008C
S11300400C946C000C946C000C943E010C946C00A9
S11300500C946C000C946C000C946C000C946C006C
S11300600C946C000C946C000C946C000C946C005C
S11300700C946C000C946C000C946C000C946C004C
S11300800C946C000C946C000C946C000C946C003C
S11300900C946C000C946C000C946C000C946C002C
S11300A00C946C000C946C000C946C000C946C001C
S11300B00C946C0011241FBECFEFD8E0DEBFCDBF7F
S11300C021E0A0E0B1E001C01D92A332B207E1F744
S11300D00E9409010C948C010C9400008AB1876081
S11300E08AB984B1866084B95A9AA0E9B0E01C92B6
S11300F0E1E9F0E01082109292008C9180688C9378
S11301008C9182608C9380818861808380818160FE
S113011080838FE990E0909397008093960081E02C
S113012090E09093990080939800A0E8B0E01C922E
S1130130E1E8F0E01082109282008C91806A8C9346
S11301408C9182608C9380818861808380818160BE
S113015080834FEF5FE0509387004093860084E4F0
S113016090E0909389008093880090938B00809313
S11301708A00A0EAB0E01C92E1EAF0E0108210925A
S1130180A2002C91206A2C932C9122602C93208124
S1130190286120832081216020835093A70040930D
S11301A0A6009093A9008093A8009093AB0080933D
S11301B0AA000895823091F018F4813031F0089546
S11301C08330A9F08430E1F0089580E1689FB001A4
S11301D011247093890060938800089580E1689FDA
S11301E0B001112470938B0060938A00089580E11C
S11301F0689FB00111247093AB006093AA00089526
S113020080E1689FB00111247093A9006093A80055
S113021008950E946E0001E010E0C0E0D0E0EE24FA
S1130220EA94FF24FA94CC24C394D12CCF3FD10573
S113023009F080F46C2F81E00E94DA006C2F82E0D8
S11302400E94DA006C2F83E00E94DA006C2F84E0B5
S11302500E94DA00C00FD11FCF3FD10534F41C1621
S11302601D062CF00C2D1D2D02C00E2D1F2D87EA0E
S113027091E60197F1F700C00000D8CF1F920F92CA
S11302800FB60F9211242F933F934F935F936F9365
S11302907F938F939F93AF93BF93EF93FF930E94AA
S11302A06201FF91EF91BF91AF919F918F917F91E7
S11302B06F915F914F913F912F910F900FBE0F90CF
S11302C01F9018958091CE0080932201E091010146
S11302D0E11103C08093000119C090910001E91756
S11302E028F4F0E0EF5EFE4F808310C080E090E0E1
S11302F0FC01EE5EFE4F2081FC01EE5FFE4F208389
S1130300019680319105A1F71092010180910101BC
S10F03108F5F809301010895F894FFCFE3
S9030000FC
