:100000000C945A000C946C000C946C000C946C00D2
:100010000C946C000C946C000C946C000C94B60165
:100020000C946C000C946C000C946C000C946C00A0
:100030000C946C000C946C000C946C000C946C0090
:100040000C946C000C946C000C946C000C946C0080
:100050000C946C000C946C000C946C000C946C0070
:100060000C946C000C946C000C946C000C946C0060
:100070000C94DA010C946C000C946C000C946C00E1
:100080000C946C000C946C000C946C000C946C0040
:100090000C946C000C946C000C946C000C946C0030
:1000A0000C946C000C946C000C946C000C946C0020
:1000B0000C946C0011241FBECFEFD8E0DEBFCDBF83
:1000C00021E0A0E0B1E001C01D92A033B207E1F74A
:1000D0000E94FE010C9410030C940000CF93DF9358
:1000E000F8948AB180668AB9549A5C9A14BC15BC9B
:1000F00084B5806A84BD84B5816084BD85B5836024
:1001000085BD8FE387BD80EC88BDC0EBD0E0188251
:10011000A1EBB0E01C921092B600E0E7F0E0108294
:100120008881826088838C9187608C9386E6809337
:10013000B3008081826080837894DF91CF910895AD
:10014000609108017091090180910A0190910B0161
:100150000895909307018093060190930501809381
:1001600004010895609300017093010180930201DE
:1001700090930301609308017093090180930A0131
:1001800090930B0108955C9A80910601909107016C
:10019000909305018093040108958091040190914A
:1001A0000501892B71F09BB180E189278BB9809182
:1001B000040190910501019790930501809304013A
:1001C00008950E94C300089580910C018C3421F0A1
:1001D0008F5F80930C01089510920C0180910001B3
:1001E00090910101A0910201B09103010097A10536
:1001F000B105B9F4409108015091090160910A01DB
:1002000070910B01452B462B472B59F00E94CD00D6
:10021000109200011092010110920201109203014C
:1002200008950197A109B1098093000190930101FC
:10023000A0930201B093030108958AB187608AB93F
:1002400084B1866084B95A9AA0E9B0E01C92E1E9D1
:10025000F0E01082109292008C9180688C938C91C7
:1002600082608C93808188618083808181608083BB
:100270008FE990E0909397008093960081E090E062
:100280009093990080939800A0E8B0E01C92E1E878
:10029000F0E01082109282008C91806A8C938C9195
:1002A00082608C938081886180838081816080837B
:1002B0002FEF3FE030938700209386001092890053
:1002C0001092880010928B0010928A00A0EAB0E091
:1002D0001C92E1EAF0E010821092A2008C91806AF8
:1002E0008C938C9182608C938081886180838081E3
:1002F000816080833093A7002093A6001092A9000C
:100300001092A8001092AB001092AA0008958230BB
:1003100091F018F4813031F008958330A9F08430E1
:10032000E1F0089580E1689FB00111247093890085
:1003300060938800089580E1689FB0011124709354
:100340008B0060938A00089580E1689FB0011124BA
:100350007093AB006093AA00089580E1689FB0019C
:1003600011247093A9006093A80008951F920F9222
:100370000FB60F9211242F933F934F935F936F9378
:100380007F938F939F93AF93BF93EF93FF930E94BD
:10039000E400FF91EF91BF91AF919F918F917F9179
:1003A0006F915F914F913F912F910F900FBE0F90E2
:1003B0001F9018951F920F920FB60F9211242F9332
:1003C0003F934F935F936F937F938F939F93AF93DD
:1003D000BF93EF93FF930E94C902FF91EF91BF91EA
:1003E000AF919F918F917F916F915F914F913F91CD
:1003F0002F910F900FBE0F901F9018950E946E00C6
:100400000E941D010E94090284E190E00E94A9005F
:10041000FFCFF8942498239A1092CD0083E3809321
:10042000CC001092C800E9ECF0E010828081886175
:100430008083808180688083EAECF0E0108286E02F
:10044000808378940895E8ECF0E0908195FFFDCFEB
:100450008093CE0008950F931F93CF93DF9366236D
:1004600071F0EC016150062F10E00F5F1F4F080F75
:10047000191F89910E942302C017D107D1F78DE07F
:100480000E942302DF91CF911F910F9108950F9346
:100490001F93CF93DF93CDB7DEB727970FB6F894AE
:1004A000DEBF0FBECDBF80910F01803319F08133C5
:1004B000F9F064C0809110018E33B9F40FE011E0BF
:1004C000F801628181E00E948701F801638182E086
:1004D0000E948701F801648183E00E948701F8018E
:1004E000658184E00E94870149C08091100146C067
:1004F000809110018E3371F5EFE0F1E0028193817C
:100500004481558110E020E030E0302F2227112770
:100510000027892F90E0A0E0B0E0DC019927882730
:10052000800F911FA21FB31F850F911DA11DB11D2B
:1005300050E060E070E0762F652F542F44278A0149
:100540009B01080F191F2A1F3B1FC901B8010E94F8
:10055000B20014C0809110018C3381F40E94A0007D
:1005600021E329831A829B838C837D836E838DE0B4
:100570008F8367E0CE0101960E942B0227960FB66B
:10058000F894DEBF0FBECDBFDF91CF911F910F91C9
:1005900008958091CE0080932F0180912F018033A8
:1005A00021F080912F01813349F480910D01811157
:1005B00005C010920E0181E080930D0180912F0102
:1005C0008D3021F480910E018630A8F4E0910E0167
:1005D000F0E080912F01E15EFE4F808380910E015B
:1005E0008F3030F480910E018F5F80930E0108955B
:1005F00010920E01089580E090E0FC01E15EFE4F54
:100600002081FC01E15FFE4F20830196803191053E
:10061000A1F710920E0110920D010E944702089559
:04062000F894FFCF7C
:00000001FF
